{
  "_format": "hh3-artifact-1",
  "contractName": "MoltXCore",
  "sourceName": "contracts/MoltXCore.sol",
  "abi": [
    {
      "inputs": [],
      "stateMutability": "nonpayable",
      "type": "constructor"
    },
    {
      "inputs": [],
      "name": "AcceptSlotsExhausted",
      "type": "error"
    },
    {
      "inputs": [
        {
          "internalType": "address",
          "name": "target",
          "type": "address"
        }
      ],
      "name": "AddressEmptyCode",
      "type": "error"
    },
    {
      "inputs": [],
      "name": "AlreadyAccepted",
      "type": "error"
    },
    {
      "inputs": [],
      "name": "AlreadySettled",
      "type": "error"
    },
    {
      "inputs": [],
      "name": "AlreadyWhitelisted",
      "type": "error"
    },
    {
      "inputs": [],
      "name": "BountyTooHighForLevel",
      "type": "error"
    },
    {
      "inputs": [],
      "name": "BountyTooLow",
      "type": "error"
    },
    {
      "inputs": [],
      "name": "CancelWindowClosed",
      "type": "error"
    },
    {
      "inputs": [],
      "name": "ChallengeWindowClosed",
      "type": "error"
    },
    {
      "inputs": [],
      "name": "ChallengeWindowOpen",
      "type": "error"
    },
    {
      "inputs": [],
      "name": "CouncilNotConfigured",
      "type": "error"
    },
    {
      "inputs": [],
      "name": "DisputeWindowClosed",
      "type": "error"
    },
    {
      "inputs": [
        {
          "internalType": "address",
          "name": "implementation",
          "type": "address"
        }
      ],
      "name": "ERC1967InvalidImplementation",
      "type": "error"
    },
    {
      "inputs": [],
      "name": "ERC1967NonPayable",
      "type": "error"
    },
    {
      "inputs": [],
      "name": "EnforcedPause",
      "type": "error"
    },
    {
      "inputs": [],
      "name": "ExpectedPause",
      "type": "error"
    },
    {
      "inputs": [],
      "name": "FailedCall",
      "type": "error"
    },
    {
      "inputs": [],
      "name": "FeeOnTransferNotSupported",
      "type": "error"
    },
    {
      "inputs": [],
      "name": "InCooldown",
      "type": "error"
    },
    {
      "inputs": [],
      "name": "InsufficientLevel",
      "type": "error"
    },
    {
      "inputs": [],
      "name": "InvalidAmount",
      "type": "error"
    },
    {
      "inputs": [],
      "name": "InvalidInitialization",
      "type": "error"
    },
    {
      "inputs": [],
      "name": "InvalidMode",
      "type": "error"
    },
    {
      "inputs": [],
      "name": "InvalidTime",
      "type": "error"
    },
    {
      "inputs": [],
      "name": "LiquidityNotConfigured",
      "type": "error"
    },
    {
      "inputs": [],
      "name": "NoPubkey",
      "type": "error"
    },
    {
      "inputs": [],
      "name": "NotCouncil",
      "type": "error"
    },
    {
      "inputs": [],
      "name": "NotInitializing",
      "type": "error"
    },
    {
      "inputs": [],
      "name": "NotMaker",
      "type": "error"
    },
    {
      "inputs": [],
      "name": "NotRegistered",
      "type": "error"
    },
    {
      "inputs": [],
      "name": "NotRejected",
      "type": "error"
    },
    {
      "inputs": [],
      "name": "NotSettlement",
      "type": "error"
    },
    {
      "inputs": [],
      "name": "NotSubmitted",
      "type": "error"
    },
    {
      "inputs": [],
      "name": "NotTaker",
      "type": "error"
    },
    {
      "inputs": [
        {
          "internalType": "address",
          "name": "owner",
          "type": "address"
        }
      ],
      "name": "OwnableInvalidOwner",
      "type": "error"
    },
    {
      "inputs": [
        {
          "internalType": "address",
          "name": "account",
          "type": "address"
        }
      ],
      "name": "OwnableUnauthorizedAccount",
      "type": "error"
    },
    {
      "inputs": [],
      "name": "PredictionNotConfigured",
      "type": "error"
    },
    {
      "inputs": [],
      "name": "ReentrancyGuardReentrantCall",
      "type": "error"
    },
    {
      "inputs": [
        {
          "internalType": "address",
          "name": "token",
          "type": "address"
        }
      ],
      "name": "SafeERC20FailedOperation",
      "type": "error"
    },
    {
      "inputs": [],
      "name": "TakerSuspended",
      "type": "error"
    },
    {
      "inputs": [],
      "name": "TaskFull",
      "type": "error"
    },
    {
      "inputs": [],
      "name": "TaskNotOpen",
      "type": "error"
    },
    {
      "inputs": [],
      "name": "TokenNotWhitelisted",
      "type": "error"
    },
    {
      "inputs": [],
      "name": "TooManyActiveMakerTasks",
      "type": "error"
    },
    {
      "inputs": [],
      "name": "TooManyActiveTasks",
      "type": "error"
    },
    {
      "inputs": [],
      "name": "UUPSUnauthorizedCallContext",
      "type": "error"
    },
    {
      "inputs": [
        {
          "internalType": "bytes32",
          "name": "slot",
          "type": "bytes32"
        }
      ],
      "name": "UUPSUnsupportedProxiableUUID",
      "type": "error"
    },
    {
      "inputs": [],
      "name": "ZeroAddress",
      "type": "error"
    },
    {
      "anonymous": false,
      "inputs": [
        {
          "indexed": true,
          "internalType": "uint256",
          "name": "taskId",
          "type": "uint256"
        },
        {
          "indexed": true,
          "internalType": "address",
          "name": "maker",
          "type": "address"
        },
        {
          "indexed": false,
          "internalType": "uint256",
          "name": "totalReclaimed",
          "type": "uint256"
        }
      ],
      "name": "BountyReclaimed",
      "type": "event"
    },
    {
      "anonymous": false,
      "inputs": [
        {
          "indexed": true,
          "internalType": "uint256",
          "name": "taskId",
          "type": "uint256"
        },
        {
          "indexed": true,
          "internalType": "address",
          "name": "taker",
          "type": "address"
        }
      ],
      "name": "DisputeAbandoned",
      "type": "event"
    },
    {
      "anonymous": false,
      "inputs": [
        {
          "indexed": true,
          "internalType": "uint256",
          "name": "taskId",
          "type": "uint256"
        },
        {
          "indexed": true,
          "internalType": "address",
          "name": "taker",
          "type": "address"
        },
        {
          "indexed": false,
          "internalType": "uint256",
          "name": "bountyShare",
          "type": "uint256"
        }
      ],
      "name": "DisputeOutcomeRecorded",
      "type": "event"
    },
    {
      "anonymous": false,
      "inputs": [
        {
          "indexed": true,
          "internalType": "uint256",
          "name": "taskId",
          "type": "uint256"
        },
        {
          "indexed": true,
          "internalType": "address",
          "name": "taker",
          "type": "address"
        },
        {
          "indexed": false,
          "internalType": "bytes32",
          "name": "evidenceIPFSHash",
          "type": "bytes32"
        },
        {
          "indexed": false,
          "internalType": "uint64",
          "name": "deadline",
          "type": "uint64"
        }
      ],
      "name": "DisputeRaised",
      "type": "event"
    },
    {
      "anonymous": false,
      "inputs": [
        {
          "indexed": true,
          "internalType": "uint256",
          "name": "taskId",
          "type": "uint256"
        },
        {
          "indexed": true,
          "internalType": "address",
          "name": "taker",
          "type": "address"
        },
        {
          "indexed": false,
          "internalType": "bool",
          "name": "takerWon",
          "type": "bool"
        },
        {
          "indexed": false,
          "internalType": "uint256",
          "name": "bountyShare",
          "type": "uint256"
        }
      ],
      "name": "DisputeVerdictRecorded",
      "type": "event"
    },
    {
      "anonymous": false,
      "inputs": [
        {
          "indexed": false,
          "internalType": "uint64",
          "name": "version",
          "type": "uint64"
        }
      ],
      "name": "Initialized",
      "type": "event"
    },
    {
      "anonymous": false,
      "inputs": [
        {
          "indexed": true,
          "internalType": "address",
          "name": "previousOwner",
          "type": "address"
        },
        {
          "indexed": true,
          "internalType": "address",
          "name": "newOwner",
          "type": "address"
        }
      ],
      "name": "OwnershipTransferStarted",
      "type": "event"
    },
    {
      "anonymous": false,
      "inputs": [
        {
          "indexed": true,
          "internalType": "address",
          "name": "previousOwner",
          "type": "address"
        },
        {
          "indexed": true,
          "internalType": "address",
          "name": "newOwner",
          "type": "address"
        }
      ],
      "name": "OwnershipTransferred",
      "type": "event"
    },
    {
      "anonymous": false,
      "inputs": [
        {
          "indexed": false,
          "internalType": "address",
          "name": "account",
          "type": "address"
        }
      ],
      "name": "Paused",
      "type": "event"
    },
    {
      "anonymous": false,
      "inputs": [
        {
          "indexed": true,
          "internalType": "uint256",
          "name": "roundId",
          "type": "uint256"
        },
        {
          "indexed": true,
          "internalType": "address",
          "name": "user",
          "type": "address"
        },
        {
          "indexed": false,
          "internalType": "uint256",
          "name": "ethAmount",
          "type": "uint256"
        },
        {
          "indexed": false,
          "internalType": "uint256",
          "name": "moltxAmount",
          "type": "uint256"
        },
        {
          "indexed": false,
          "internalType": "uint256",
          "name": "lpMoltxUsed",
          "type": "uint256"
        },
        {
          "indexed": false,
          "internalType": "bool",
          "name": "taskLPAdded",
          "type": "bool"
        }
      ],
      "name": "PredictionRewardClaimed",
      "type": "event"
    },
    {
      "anonymous": false,
      "inputs": [
        {
          "indexed": true,
          "internalType": "uint256",
          "name": "roundId",
          "type": "uint256"
        },
        {
          "indexed": true,
          "internalType": "address",
          "name": "user",
          "type": "address"
        },
        {
          "indexed": true,
          "internalType": "uint8",
          "name": "tier",
          "type": "uint8"
        },
        {
          "indexed": false,
          "internalType": "uint256",
          "name": "shares",
          "type": "uint256"
        }
      ],
      "name": "PredictionTaskAccepted",
      "type": "event"
    },
    {
      "anonymous": false,
      "inputs": [
        {
          "indexed": true,
          "internalType": "uint256",
          "name": "roundId",
          "type": "uint256"
        },
        {
          "indexed": false,
          "internalType": "uint256",
          "name": "yesterdayOutput",
          "type": "uint256"
        },
        {
          "indexed": false,
          "internalType": "uint256",
          "name": "timestamp",
          "type": "uint256"
        }
      ],
      "name": "PredictionTaskCreated",
      "type": "event"
    },
    {
      "anonymous": false,
      "inputs": [
        {
          "indexed": true,
          "internalType": "uint256",
          "name": "taskId",
          "type": "uint256"
        },
        {
          "indexed": true,
          "internalType": "address",
          "name": "taker",
          "type": "address"
        },
        {
          "indexed": false,
          "internalType": "uint64",
          "name": "rejectTime",
          "type": "uint64"
        }
      ],
      "name": "SubmissionRejected",
      "type": "event"
    },
    {
      "anonymous": false,
      "inputs": [
        {
          "indexed": true,
          "internalType": "uint256",
          "name": "taskId",
          "type": "uint256"
        },
        {
          "indexed": true,
          "internalType": "address",
          "name": "taker",
          "type": "address"
        },
        {
          "indexed": false,
          "internalType": "uint64",
          "name": "acceptTime",
          "type": "uint64"
        }
      ],
      "name": "TaskAccepted",
      "type": "event"
    },
    {
      "anonymous": false,
      "inputs": [
        {
          "indexed": true,
          "internalType": "uint256",
          "name": "taskId",
          "type": "uint256"
        },
        {
          "indexed": true,
          "internalType": "address",
          "name": "taker",
          "type": "address"
        },
        {
          "indexed": false,
          "internalType": "uint64",
          "name": "cancelTime",
          "type": "uint64"
        }
      ],
      "name": "TaskCancelled",
      "type": "event"
    },
    {
      "anonymous": false,
      "inputs": [
        {
          "indexed": true,
          "internalType": "uint256",
          "name": "taskId",
          "type": "uint256"
        },
        {
          "indexed": true,
          "internalType": "address",
          "name": "maker",
          "type": "address"
        },
        {
          "indexed": false,
          "internalType": "address",
          "name": "bountyToken",
          "type": "address"
        },
        {
          "indexed": false,
          "internalType": "enum MoltXCore.TaskMode",
          "name": "mode",
          "type": "uint8"
        },
        {
          "indexed": false,
          "internalType": "uint256",
          "name": "bounty",
          "type": "uint256"
        },
        {
          "indexed": false,
          "internalType": "uint256",
          "name": "deposit",
          "type": "uint256"
        },
        {
          "indexed": false,
          "internalType": "uint32",
          "name": "maxTakers",
          "type": "uint32"
        },
        {
          "indexed": false,
          "internalType": "uint8",
          "name": "minTakerLevel",
          "type": "uint8"
        },
        {
          "indexed": false,
          "internalType": "uint64",
          "name": "acceptDeadline",
          "type": "uint64"
        },
        {
          "indexed": false,
          "internalType": "uint64",
          "name": "submitDeadline",
          "type": "uint64"
        },
        {
          "indexed": false,
          "internalType": "bytes32",
          "name": "requirementHash",
          "type": "bytes32"
        },
        {
          "indexed": false,
          "internalType": "bool",
          "name": "deliveryPrivate",
          "type": "bool"
        }
      ],
      "name": "TaskCreated",
      "type": "event"
    },
    {
      "anonymous": false,
      "inputs": [
        {
          "indexed": true,
          "internalType": "uint256",
          "name": "taskId",
          "type": "uint256"
        },
        {
          "indexed": false,
          "internalType": "uint256",
          "name": "protocolFee",
          "type": "uint256"
        },
        {
          "indexed": false,
          "internalType": "uint256",
          "name": "lpFee",
          "type": "uint256"
        }
      ],
      "name": "TaskSettled",
      "type": "event"
    },
    {
      "anonymous": false,
      "inputs": [
        {
          "indexed": true,
          "internalType": "uint256",
          "name": "taskId",
          "type": "uint256"
        },
        {
          "indexed": true,
          "internalType": "address",
          "name": "taker",
          "type": "address"
        },
        {
          "indexed": false,
          "internalType": "bytes32",
          "name": "deliveryRef",
          "type": "bytes32"
        },
        {
          "indexed": false,
          "internalType": "uint64",
          "name": "submitTime",
          "type": "uint64"
        }
      ],
      "name": "TaskSubmitted",
      "type": "event"
    },
    {
      "anonymous": false,
      "inputs": [
        {
          "indexed": true,
          "internalType": "address",
          "name": "token",
          "type": "address"
        }
      ],
      "name": "TokenRemovedFromWhitelist",
      "type": "event"
    },
    {
      "anonymous": false,
      "inputs": [
        {
          "indexed": true,
          "internalType": "address",
          "name": "token",
          "type": "address"
        }
      ],
      "name": "TokenWhitelisted",
      "type": "event"
    },
    {
      "anonymous": false,
      "inputs": [
        {
          "indexed": false,
          "internalType": "address",
          "name": "account",
          "type": "address"
        }
      ],
      "name": "Unpaused",
      "type": "event"
    },
    {
      "anonymous": false,
      "inputs": [
        {
          "indexed": true,
          "internalType": "address",
          "name": "implementation",
          "type": "address"
        }
      ],
      "name": "Upgraded",
      "type": "event"
    },
    {
      "inputs": [],
      "name": "AUTO_LP_FEE_BPS",
      "outputs": [
        {
          "internalType": "uint256",
          "name": "",
          "type": "uint256"
        }
      ],
      "stateMutability": "view",
      "type": "function"
    },
    {
      "inputs": [],
      "name": "CANCEL_WINDOW",
      "outputs": [
        {
          "internalType": "uint256",
          "name": "",
          "type": "uint256"
        }
      ],
      "stateMutability": "view",
      "type": "function"
    },
    {
      "inputs": [],
      "name": "CHALLENGE_WINDOW",
      "outputs": [
        {
          "internalType": "uint256",
          "name": "",
          "type": "uint256"
        }
      ],
      "stateMutability": "view",
      "type": "function"
    },
    {
      "inputs": [],
      "name": "CONSOLATION_PRIZE",
      "outputs": [
        {
          "internalType": "uint256",
          "name": "",
          "type": "uint256"
        }
      ],
      "stateMutability": "view",
      "type": "function"
    },
    {
      "inputs": [],
      "name": "DISPUTE_WINDOW",
      "outputs": [
        {
          "internalType": "uint256",
          "name": "",
          "type": "uint256"
        }
      ],
      "stateMutability": "view",
      "type": "function"
    },
    {
      "inputs": [],
      "name": "FINALIZE_BOUNTY",
      "outputs": [
        {
          "internalType": "uint256",
          "name": "",
          "type": "uint256"
        }
      ],
      "stateMutability": "view",
      "type": "function"
    },
    {
      "inputs": [],
      "name": "MIN_REPUTATION_BOUNTY",
      "outputs": [
        {
          "internalType": "uint256",
          "name": "",
          "type": "uint256"
        }
      ],
      "stateMutability": "view",
      "type": "function"
    },
    {
      "inputs": [],
      "name": "NEWMAKER_MAX_BOUNTY",
      "outputs": [
        {
          "internalType": "uint256",
          "name": "",
          "type": "uint256"
        }
      ],
      "stateMutability": "view",
      "type": "function"
    },
    {
      "inputs": [],
      "name": "NEWTAKER_MAX_BOUNTY",
      "outputs": [
        {
          "internalType": "uint256",
          "name": "",
          "type": "uint256"
        }
      ],
      "stateMutability": "view",
      "type": "function"
    },
    {
      "inputs": [],
      "name": "PROTOCOL_FEE_BPS",
      "outputs": [
        {
          "internalType": "uint256",
          "name": "",
          "type": "uint256"
        }
      ],
      "stateMutability": "view",
      "type": "function"
    },
    {
      "inputs": [],
      "name": "TAKER_CANCEL_COOLDOWN",
      "outputs": [
        {
          "internalType": "uint256",
          "name": "",
          "type": "uint256"
        }
      ],
      "stateMutability": "view",
      "type": "function"
    },
    {
      "inputs": [],
      "name": "TAKER_SHARE_BPS",
      "outputs": [
        {
          "internalType": "uint256",
          "name": "",
          "type": "uint256"
        }
      ],
      "stateMutability": "view",
      "type": "function"
    },
    {
      "inputs": [],
      "name": "UPGRADE_INTERFACE_VERSION",
      "outputs": [
        {
          "internalType": "string",
          "name": "",
          "type": "string"
        }
      ],
      "stateMutability": "view",
      "type": "function"
    },
    {
      "inputs": [],
      "name": "acceptOwnership",
      "outputs": [],
      "stateMutability": "nonpayable",
      "type": "function"
    },
    {
      "inputs": [
        {
          "internalType": "uint8",
          "name": "tier",
          "type": "uint8"
        },
        {
          "internalType": "uint256",
          "name": "maxPrice",
          "type": "uint256"
        }
      ],
      "name": "acceptPredictionTask",
      "outputs": [],
      "stateMutability": "payable",
      "type": "function"
    },
    {
      "inputs": [
        {
          "internalType": "uint256",
          "name": "taskId",
          "type": "uint256"
        }
      ],
      "name": "acceptTask",
      "outputs": [],
      "stateMutability": "nonpayable",
      "type": "function"
    },
    {
      "inputs": [
        {
          "internalType": "uint256",
          "name": "",
          "type": "uint256"
        },
        {
          "internalType": "address",
          "name": "",
          "type": "address"
        }
      ],
      "name": "activeDispute",
      "outputs": [
        {
          "internalType": "bool",
          "name": "",
          "type": "bool"
        }
      ],
      "stateMutability": "view",
      "type": "function"
    },
    {
      "inputs": [
        {
          "internalType": "address",
          "name": "token",
          "type": "address"
        },
        {
          "internalType": "uint24",
          "name": "fee",
          "type": "uint24"
        }
      ],
      "name": "addWhitelistToken",
      "outputs": [],
      "stateMutability": "nonpayable",
      "type": "function"
    },
    {
      "inputs": [
        {
          "internalType": "uint256",
          "name": "",
          "type": "uint256"
        },
        {
          "internalType": "address",
          "name": "",
          "type": "address"
        }
      ],
      "name": "bountyShareReclaimed",
      "outputs": [
        {
          "internalType": "bool",
          "name": "",
          "type": "bool"
        }
      ],
      "stateMutability": "view",
      "type": "function"
    },
    {
      "inputs": [
        {
          "internalType": "uint256",
          "name": "taskId",
          "type": "uint256"
        }
      ],
      "name": "cancelTask",
      "outputs": [],
      "stateMutability": "nonpayable",
      "type": "function"
    },
    {
      "inputs": [
        {
          "internalType": "uint256",
          "name": "taskId",
          "type": "uint256"
        }
      ],
      "name": "claimFunds",
      "outputs": [],
      "stateMutability": "nonpayable",
      "type": "function"
    },
    {
      "inputs": [],
      "name": "claimMoltX",
      "outputs": [],
      "stateMutability": "nonpayable",
      "type": "function"
    },
    {
      "inputs": [
        {
          "internalType": "uint256",
          "name": "roundId",
          "type": "uint256"
        }
      ],
      "name": "claimPredictionReward",
      "outputs": [],
      "stateMutability": "nonpayable",
      "type": "function"
    },
    {
      "inputs": [
        {
          "internalType": "uint256",
          "name": "taskId",
          "type": "uint256"
        },
        {
          "internalType": "address",
          "name": "taker",
          "type": "address"
        }
      ],
      "name": "clearActiveDispute",
      "outputs": [],
      "stateMutability": "nonpayable",
      "type": "function"
    },
    {
      "inputs": [
        {
          "internalType": "uint256",
          "name": "taskId",
          "type": "uint256"
        },
        {
          "internalType": "address[]",
          "name": "takers",
          "type": "address[]"
        }
      ],
      "name": "confirmSubmission",
      "outputs": [],
      "stateMutability": "nonpayable",
      "type": "function"
    },
    {
      "inputs": [],
      "name": "council",
      "outputs": [
        {
          "internalType": "contract IMoltXCouncil",
          "name": "",
          "type": "address"
        }
      ],
      "stateMutability": "view",
      "type": "function"
    },
    {
      "inputs": [],
      "name": "createPredictionTask",
      "outputs": [],
      "stateMutability": "nonpayable",
      "type": "function"
    },
    {
      "inputs": [
        {
          "internalType": "address",
          "name": "bountyToken",
          "type": "address"
        },
        {
          "internalType": "uint96",
          "name": "bounty",
          "type": "uint96"
        },
        {
          "internalType": "uint96",
          "name": "deposit",
          "type": "uint96"
        },
        {
          "internalType": "enum MoltXCore.TaskMode",
          "name": "mode",
          "type": "uint8"
        },
        {
          "internalType": "uint32",
          "name": "maxTakers",
          "type": "uint32"
        },
        {
          "internalType": "uint8",
          "name": "categoryId",
          "type": "uint8"
        },
        {
          "internalType": "uint8",
          "name": "minTakerLevel",
          "type": "uint8"
        },
        {
          "internalType": "uint64",
          "name": "acceptDeadline",
          "type": "uint64"
        },
        {
          "internalType": "uint64",
          "name": "submitDeadline",
          "type": "uint64"
        },
        {
          "internalType": "bytes32",
          "name": "requirementHash",
          "type": "bytes32"
        },
        {
          "internalType": "bool",
          "name": "deliveryPrivate",
          "type": "bool"
        }
      ],
      "name": "createTask",
      "outputs": [
        {
          "internalType": "uint256",
          "name": "taskId",
          "type": "uint256"
        }
      ],
      "stateMutability": "nonpayable",
      "type": "function"
    },
    {
      "inputs": [
        {
          "internalType": "uint256",
          "name": "",
          "type": "uint256"
        }
      ],
      "name": "currentSingleTaker",
      "outputs": [
        {
          "internalType": "address",
          "name": "",
          "type": "address"
        }
      ],
      "stateMutability": "view",
      "type": "function"
    },
    {
      "inputs": [
        {
          "internalType": "uint256",
          "name": "",
          "type": "uint256"
        },
        {
          "internalType": "address",
          "name": "",
          "type": "address"
        }
      ],
      "name": "disputeOutcomes",
      "outputs": [
        {
          "internalType": "uint8",
          "name": "",
          "type": "uint8"
        }
      ],
      "stateMutability": "view",
      "type": "function"
    },
    {
      "inputs": [
        {
          "internalType": "uint256",
          "name": "",
          "type": "uint256"
        },
        {
          "internalType": "address",
          "name": "",
          "type": "address"
        }
      ],
      "name": "disputeRaiseUsdcEquiv",
      "outputs": [
        {
          "internalType": "uint256",
          "name": "",
          "type": "uint256"
        }
      ],
      "stateMutability": "view",
      "type": "function"
    },
    {
      "inputs": [
        {
          "internalType": "uint256",
          "name": "taskId",
          "type": "uint256"
        },
        {
          "internalType": "address",
          "name": "taker",
          "type": "address"
        },
        {
          "internalType": "address[]",
          "name": "consolationRecipients",
          "type": "address[]"
        },
        {
          "internalType": "address",
          "name": "commitFinalizer",
          "type": "address"
        }
      ],
      "name": "executeDisputeUnresolved",
      "outputs": [],
      "stateMutability": "nonpayable",
      "type": "function"
    },
    {
      "inputs": [
        {
          "internalType": "uint256",
          "name": "taskId",
          "type": "uint256"
        },
        {
          "internalType": "address",
          "name": "taker",
          "type": "address"
        },
        {
          "internalType": "bool",
          "name": "takerWon",
          "type": "bool"
        },
        {
          "internalType": "address[]",
          "name": "majorityJurors",
          "type": "address[]"
        },
        {
          "internalType": "address[]",
          "name": "minorityJurors",
          "type": "address[]"
        },
        {
          "internalType": "address[]",
          "name": "violators",
          "type": "address[]"
        },
        {
          "internalType": "address[]",
          "name": "consolationRecipients",
          "type": "address[]"
        },
        {
          "internalType": "address",
          "name": "commitFinalizer",
          "type": "address"
        },
        {
          "internalType": "address",
          "name": "revealFinalizer",
          "type": "address"
        }
      ],
      "name": "executeDisputeVerdict",
      "outputs": [],
      "stateMutability": "nonpayable",
      "type": "function"
    },
    {
      "inputs": [],
      "name": "getCurrentEmissionRate",
      "outputs": [
        {
          "internalType": "uint256",
          "name": "",
          "type": "uint256"
        }
      ],
      "stateMutability": "view",
      "type": "function"
    },
    {
      "inputs": [
        {
          "internalType": "uint256",
          "name": "taskId",
          "type": "uint256"
        },
        {
          "internalType": "address",
          "name": "taker",
          "type": "address"
        }
      ],
      "name": "getTakerState",
      "outputs": [
        {
          "components": [
            {
              "internalType": "address",
              "name": "taker",
              "type": "address"
            },
            {
              "internalType": "uint64",
              "name": "acceptTime",
              "type": "uint64"
            },
            {
              "internalType": "uint64",
              "name": "submitTime",
              "type": "uint64"
            },
            {
              "internalType": "uint64",
              "name": "rejectTime",
              "type": "uint64"
            },
            {
              "internalType": "bytes32",
              "name": "deliveryRef",
              "type": "bytes32"
            },
            {
              "internalType": "bool",
              "name": "hasSubmitted",
              "type": "bool"
            },
            {
              "internalType": "bool",
              "name": "isRejected",
              "type": "bool"
            },
            {
              "internalType": "bool",
              "name": "hasClaimed",
              "type": "bool"
            },
            {
              "internalType": "bool",
              "name": "inDispute",
              "type": "bool"
            }
          ],
          "internalType": "struct MoltXCore.TakerState",
          "name": "",
          "type": "tuple"
        }
      ],
      "stateMutability": "view",
      "type": "function"
    },
    {
      "inputs": [
        {
          "internalType": "uint256",
          "name": "taskId",
          "type": "uint256"
        }
      ],
      "name": "getTask",
      "outputs": [
        {
          "components": [
            {
              "internalType": "address",
              "name": "maker",
              "type": "address"
            },
            {
              "internalType": "address",
              "name": "bountyToken",
              "type": "address"
            },
            {
              "internalType": "enum MoltXCore.TaskMode",
              "name": "mode",
              "type": "uint8"
            },
            {
              "internalType": "enum MoltXCore.TaskStatus",
              "name": "status",
              "type": "uint8"
            },
            {
              "internalType": "uint96",
              "name": "bounty",
              "type": "uint96"
            },
            {
              "internalType": "uint96",
              "name": "deposit",
              "type": "uint96"
            },
            {
              "internalType": "uint32",
              "name": "maxTakers",
              "type": "uint32"
            },
            {
              "internalType": "uint32",
              "name": "acceptedCount",
              "type": "uint32"
            },
            {
              "internalType": "uint32",
              "name": "submittedCount",
              "type": "uint32"
            },
            {
              "internalType": "uint8",
              "name": "categoryId",
              "type": "uint8"
            },
            {
              "internalType": "uint8",
              "name": "minTakerLevel",
              "type": "uint8"
            },
            {
              "internalType": "bool",
              "name": "feesSettled",
              "type": "bool"
            },
            {
              "internalType": "uint64",
              "name": "acceptDeadline",
              "type": "uint64"
            },
            {
              "internalType": "uint64",
              "name": "submitDeadline",
              "type": "uint64"
            },
            {
              "internalType": "uint64",
              "name": "lastSubmitTime",
              "type": "uint64"
            },
            {
              "internalType": "uint64",
              "name": "lastAcceptTime",
              "type": "uint64"
            },
            {
              "internalType": "bytes32",
              "name": "requirementHash",
              "type": "bytes32"
            },
            {
              "internalType": "bool",
              "name": "deliveryPrivate",
              "type": "bool"
            }
          ],
          "internalType": "struct MoltXCore.Task",
          "name": "",
          "type": "tuple"
        }
      ],
      "stateMutability": "view",
      "type": "function"
    },
    {
      "inputs": [
        {
          "internalType": "uint256",
          "name": "taskId",
          "type": "uint256"
        }
      ],
      "name": "getTaskTakers",
      "outputs": [
        {
          "internalType": "address[]",
          "name": "",
          "type": "address[]"
        }
      ],
      "stateMutability": "view",
      "type": "function"
    },
    {
      "inputs": [],
      "name": "getWhitelistedTokens",
      "outputs": [
        {
          "internalType": "address[]",
          "name": "",
          "type": "address[]"
        }
      ],
      "stateMutability": "view",
      "type": "function"
    },
    {
      "inputs": [],
      "name": "identity",
      "outputs": [
        {
          "internalType": "contract IMoltXIdentity",
          "name": "",
          "type": "address"
        }
      ],
      "stateMutability": "view",
      "type": "function"
    },
    {
      "inputs": [
        {
          "internalType": "address",
          "name": "initialOwner",
          "type": "address"
        },
        {
          "internalType": "address",
          "name": "_usdcToken",
          "type": "address"
        },
        {
          "internalType": "address",
          "name": "_moltxToken",
          "type": "address"
        },
        {
          "internalType": "address",
          "name": "_identity",
          "type": "address"
        },
        {
          "internalType": "address",
          "name": "_role",
          "type": "address"
        },
        {
          "internalType": "address",
          "name": "_v3Factory",
          "type": "address"
        },
        {
          "internalType": "address[]",
          "name": "_initialWhitelistTokens",
          "type": "address[]"
        },
        {
          "internalType": "uint24[]",
          "name": "_poolFees",
          "type": "uint24[]"
        }
      ],
      "name": "initialize",
      "outputs": [],
      "stateMutability": "nonpayable",
      "type": "function"
    },
    {
      "inputs": [
        {
          "internalType": "uint256",
          "name": "taskId",
          "type": "uint256"
        }
      ],
      "name": "isTaskExpired",
      "outputs": [
        {
          "internalType": "bool",
          "name": "",
          "type": "bool"
        }
      ],
      "stateMutability": "view",
      "type": "function"
    },
    {
      "inputs": [
        {
          "internalType": "address",
          "name": "",
          "type": "address"
        }
      ],
      "name": "isTokenWhitelisted",
      "outputs": [
        {
          "internalType": "bool",
          "name": "",
          "type": "bool"
        }
      ],
      "stateMutability": "view",
      "type": "function"
    },
    {
      "inputs": [],
      "name": "liquidity",
      "outputs": [
        {
          "internalType": "contract IMoltXLiquidity",
          "name": "",
          "type": "address"
        }
      ],
      "stateMutability": "view",
      "type": "function"
    },
    {
      "inputs": [
        {
          "internalType": "uint256",
          "name": "",
          "type": "uint256"
        }
      ],
      "name": "makerSideSettled",
      "outputs": [
        {
          "internalType": "bool",
          "name": "",
          "type": "bool"
        }
      ],
      "stateMutability": "view",
      "type": "function"
    },
    {
      "inputs": [],
      "name": "minedFromPool",
      "outputs": [
        {
          "internalType": "uint256",
          "name": "",
          "type": "uint256"
        }
      ],
      "stateMutability": "view",
      "type": "function"
    },
    {
      "inputs": [
        {
          "internalType": "address",
          "name": "to",
          "type": "address"
        },
        {
          "internalType": "uint256",
          "name": "amount",
          "type": "uint256"
        }
      ],
      "name": "mintFromPool",
      "outputs": [
        {
          "internalType": "uint256",
          "name": "minted",
          "type": "uint256"
        }
      ],
      "stateMutability": "nonpayable",
      "type": "function"
    },
    {
      "inputs": [],
      "name": "moltxToken",
      "outputs": [
        {
          "internalType": "contract IMoltXToken",
          "name": "",
          "type": "address"
        }
      ],
      "stateMutability": "view",
      "type": "function"
    },
    {
      "inputs": [],
      "name": "nextTaskId",
      "outputs": [
        {
          "internalType": "uint256",
          "name": "",
          "type": "uint256"
        }
      ],
      "stateMutability": "view",
      "type": "function"
    },
    {
      "inputs": [],
      "name": "owner",
      "outputs": [
        {
          "internalType": "address",
          "name": "",
          "type": "address"
        }
      ],
      "stateMutability": "view",
      "type": "function"
    },
    {
      "inputs": [],
      "name": "pause",
      "outputs": [],
      "stateMutability": "nonpayable",
      "type": "function"
    },
    {
      "inputs": [],
      "name": "paused",
      "outputs": [
        {
          "internalType": "bool",
          "name": "",
          "type": "bool"
        }
      ],
      "stateMutability": "view",
      "type": "function"
    },
    {
      "inputs": [],
      "name": "pendingOwner",
      "outputs": [
        {
          "internalType": "address",
          "name": "",
          "type": "address"
        }
      ],
      "stateMutability": "view",
      "type": "function"
    },
    {
      "inputs": [],
      "name": "prediction",
      "outputs": [
        {
          "internalType": "contract IMoltXPrediction",
          "name": "",
          "type": "address"
        }
      ],
      "stateMutability": "view",
      "type": "function"
    },
    {
      "inputs": [],
      "name": "proxiableUUID",
      "outputs": [
        {
          "internalType": "bytes32",
          "name": "",
          "type": "bytes32"
        }
      ],
      "stateMutability": "view",
      "type": "function"
    },
    {
      "inputs": [
        {
          "internalType": "uint256",
          "name": "taskId",
          "type": "uint256"
        },
        {
          "internalType": "bytes32",
          "name": "evidenceIPFSHash",
          "type": "bytes32"
        }
      ],
      "name": "raiseDispute",
      "outputs": [],
      "stateMutability": "nonpayable",
      "type": "function"
    },
    {
      "inputs": [
        {
          "internalType": "uint256",
          "name": "taskId",
          "type": "uint256"
        }
      ],
      "name": "reclaimBounty",
      "outputs": [],
      "stateMutability": "nonpayable",
      "type": "function"
    },
    {
      "inputs": [
        {
          "internalType": "uint256",
          "name": "taskId",
          "type": "uint256"
        },
        {
          "internalType": "address[]",
          "name": "takers",
          "type": "address[]"
        }
      ],
      "name": "rejectSubmission",
      "outputs": [],
      "stateMutability": "nonpayable",
      "type": "function"
    },
    {
      "inputs": [
        {
          "internalType": "uint256",
          "name": "taskId",
          "type": "uint256"
        }
      ],
      "name": "rejectSubmission",
      "outputs": [],
      "stateMutability": "nonpayable",
      "type": "function"
    },
    {
      "inputs": [
        {
          "internalType": "uint256",
          "name": "",
          "type": "uint256"
        },
        {
          "internalType": "address",
          "name": "",
          "type": "address"
        }
      ],
      "name": "rejections",
      "outputs": [
        {
          "internalType": "bool",
          "name": "",
          "type": "bool"
        }
      ],
      "stateMutability": "view",
      "type": "function"
    },
    {
      "inputs": [
        {
          "internalType": "address",
          "name": "token",
          "type": "address"
        }
      ],
      "name": "removeWhitelistToken",
      "outputs": [],
      "stateMutability": "nonpayable",
      "type": "function"
    },
    {
      "inputs": [],
      "name": "renounceOwnership",
      "outputs": [],
      "stateMutability": "nonpayable",
      "type": "function"
    },
    {
      "inputs": [],
      "name": "role",
      "outputs": [
        {
          "internalType": "contract IMoltXRole",
          "name": "",
          "type": "address"
        }
      ],
      "stateMutability": "view",
      "type": "function"
    },
    {
      "inputs": [
        {
          "internalType": "uint256",
          "name": "taskId",
          "type": "uint256"
        },
        {
          "internalType": "address",
          "name": "taker",
          "type": "address"
        }
      ],
      "name": "setBountyShareReclaimed",
      "outputs": [],
      "stateMutability": "nonpayable",
      "type": "function"
    },
    {
      "inputs": [
        {
          "internalType": "address",
          "name": "_council",
          "type": "address"
        }
      ],
      "name": "setCouncil",
      "outputs": [],
      "stateMutability": "nonpayable",
      "type": "function"
    },
    {
      "inputs": [
        {
          "internalType": "uint256",
          "name": "taskId",
          "type": "uint256"
        },
        {
          "internalType": "address",
          "name": "taker",
          "type": "address"
        },
        {
          "internalType": "uint8",
          "name": "outcome",
          "type": "uint8"
        }
      ],
      "name": "setDisputeOutcome",
      "outputs": [],
      "stateMutability": "nonpayable",
      "type": "function"
    },
    {
      "inputs": [
        {
          "internalType": "address",
          "name": "_liquidity",
          "type": "address"
        }
      ],
      "name": "setLiquidity",
      "outputs": [],
      "stateMutability": "nonpayable",
      "type": "function"
    },
    {
      "inputs": [
        {
          "internalType": "uint256",
          "name": "taskId",
          "type": "uint256"
        },
        {
          "internalType": "uint256",
          "name": "amount",
          "type": "uint256"
        }
      ],
      "name": "setLpUsdcReceived",
      "outputs": [],
      "stateMutability": "nonpayable",
      "type": "function"
    },
    {
      "inputs": [
        {
          "internalType": "uint256",
          "name": "taskId",
          "type": "uint256"
        }
      ],
      "name": "setMakerSideSettled",
      "outputs": [],
      "stateMutability": "nonpayable",
      "type": "function"
    },
    {
      "inputs": [
        {
          "internalType": "address",
          "name": "_prediction",
          "type": "address"
        }
      ],
      "name": "setPrediction",
      "outputs": [],
      "stateMutability": "nonpayable",
      "type": "function"
    },
    {
      "inputs": [
        {
          "internalType": "address",
          "name": "_settlement",
          "type": "address"
        }
      ],
      "name": "setSettlement",
      "outputs": [],
      "stateMutability": "nonpayable",
      "type": "function"
    },
    {
      "inputs": [
        {
          "internalType": "uint256",
          "name": "taskId",
          "type": "uint256"
        },
        {
          "internalType": "address",
          "name": "taker",
          "type": "address"
        }
      ],
      "name": "setTakerClaimed",
      "outputs": [],
      "stateMutability": "nonpayable",
      "type": "function"
    },
    {
      "inputs": [
        {
          "internalType": "uint256",
          "name": "taskId",
          "type": "uint256"
        },
        {
          "internalType": "uint8",
          "name": "status",
          "type": "uint8"
        }
      ],
      "name": "setTaskStatus",
      "outputs": [],
      "stateMutability": "nonpayable",
      "type": "function"
    },
    {
      "inputs": [
        {
          "internalType": "address",
          "name": "_vault",
          "type": "address"
        }
      ],
      "name": "setVault",
      "outputs": [],
      "stateMutability": "nonpayable",
      "type": "function"
    },
    {
      "inputs": [
        {
          "internalType": "uint256",
          "name": "taskId",
          "type": "uint256"
        }
      ],
      "name": "settleFees",
      "outputs": [
        {
          "internalType": "uint256",
          "name": "",
          "type": "uint256"
        }
      ],
      "stateMutability": "nonpayable",
      "type": "function"
    },
    {
      "inputs": [],
      "name": "settlement",
      "outputs": [
        {
          "internalType": "address",
          "name": "",
          "type": "address"
        }
      ],
      "stateMutability": "view",
      "type": "function"
    },
    {
      "inputs": [
        {
          "internalType": "uint256",
          "name": "taskId",
          "type": "uint256"
        },
        {
          "internalType": "bytes32",
          "name": "deliveryRef",
          "type": "bytes32"
        }
      ],
      "name": "submitCompletion",
      "outputs": [],
      "stateMutability": "nonpayable",
      "type": "function"
    },
    {
      "inputs": [
        {
          "internalType": "address",
          "name": "",
          "type": "address"
        },
        {
          "internalType": "uint256",
          "name": "",
          "type": "uint256"
        }
      ],
      "name": "takerCancelCooldown",
      "outputs": [
        {
          "internalType": "uint64",
          "name": "",
          "type": "uint64"
        }
      ],
      "stateMutability": "view",
      "type": "function"
    },
    {
      "inputs": [
        {
          "internalType": "uint256",
          "name": "",
          "type": "uint256"
        },
        {
          "internalType": "address",
          "name": "",
          "type": "address"
        }
      ],
      "name": "takerStates",
      "outputs": [
        {
          "internalType": "address",
          "name": "taker",
          "type": "address"
        },
        {
          "internalType": "uint64",
          "name": "acceptTime",
          "type": "uint64"
        },
        {
          "internalType": "uint64",
          "name": "submitTime",
          "type": "uint64"
        },
        {
          "internalType": "uint64",
          "name": "rejectTime",
          "type": "uint64"
        },
        {
          "internalType": "bytes32",
          "name": "deliveryRef",
          "type": "bytes32"
        },
        {
          "internalType": "bool",
          "name": "hasSubmitted",
          "type": "bool"
        },
        {
          "internalType": "bool",
          "name": "isRejected",
          "type": "bool"
        },
        {
          "internalType": "bool",
          "name": "hasClaimed",
          "type": "bool"
        },
        {
          "internalType": "bool",
          "name": "inDispute",
          "type": "bool"
        }
      ],
      "stateMutability": "view",
      "type": "function"
    },
    {
      "inputs": [
        {
          "internalType": "uint256",
          "name": "",
          "type": "uint256"
        }
      ],
      "name": "taskLpUsdcReceived",
      "outputs": [
        {
          "internalType": "uint256",
          "name": "",
          "type": "uint256"
        }
      ],
      "stateMutability": "view",
      "type": "function"
    },
    {
      "inputs": [
        {
          "internalType": "uint256",
          "name": "",
          "type": "uint256"
        },
        {
          "internalType": "uint256",
          "name": "",
          "type": "uint256"
        }
      ],
      "name": "taskTakers",
      "outputs": [
        {
          "internalType": "address",
          "name": "",
          "type": "address"
        }
      ],
      "stateMutability": "view",
      "type": "function"
    },
    {
      "inputs": [
        {
          "internalType": "uint256",
          "name": "",
          "type": "uint256"
        }
      ],
      "name": "tasks",
      "outputs": [
        {
          "internalType": "address",
          "name": "maker",
          "type": "address"
        },
        {
          "internalType": "address",
          "name": "bountyToken",
          "type": "address"
        },
        {
          "internalType": "enum MoltXCore.TaskMode",
          "name": "mode",
          "type": "uint8"
        },
        {
          "internalType": "enum MoltXCore.TaskStatus",
          "name": "status",
          "type": "uint8"
        },
        {
          "internalType": "uint96",
          "name": "bounty",
          "type": "uint96"
        },
        {
          "internalType": "uint96",
          "name": "deposit",
          "type": "uint96"
        },
        {
          "internalType": "uint32",
          "name": "maxTakers",
          "type": "uint32"
        },
        {
          "internalType": "uint32",
          "name": "acceptedCount",
          "type": "uint32"
        },
        {
          "internalType": "uint32",
          "name": "submittedCount",
          "type": "uint32"
        },
        {
          "internalType": "uint8",
          "name": "categoryId",
          "type": "uint8"
        },
        {
          "internalType": "uint8",
          "name": "minTakerLevel",
          "type": "uint8"
        },
        {
          "internalType": "bool",
          "name": "feesSettled",
          "type": "bool"
        },
        {
          "internalType": "uint64",
          "name": "acceptDeadline",
          "type": "uint64"
        },
        {
          "internalType": "uint64",
          "name": "submitDeadline",
          "type": "uint64"
        },
        {
          "internalType": "uint64",
          "name": "lastSubmitTime",
          "type": "uint64"
        },
        {
          "internalType": "uint64",
          "name": "lastAcceptTime",
          "type": "uint64"
        },
        {
          "internalType": "bytes32",
          "name": "requirementHash",
          "type": "bytes32"
        },
        {
          "internalType": "bool",
          "name": "deliveryPrivate",
          "type": "bool"
        }
      ],
      "stateMutability": "view",
      "type": "function"
    },
    {
      "inputs": [
        {
          "internalType": "address",
          "name": "",
          "type": "address"
        }
      ],
      "name": "tokenPoolFee",
      "outputs": [
        {
          "internalType": "uint24",
          "name": "",
          "type": "uint24"
        }
      ],
      "stateMutability": "view",
      "type": "function"
    },
    {
      "inputs": [
        {
          "internalType": "address",
          "name": "newOwner",
          "type": "address"
        }
      ],
      "name": "transferOwnership",
      "outputs": [],
      "stateMutability": "nonpayable",
      "type": "function"
    },
    {
      "inputs": [],
      "name": "unpause",
      "outputs": [],
      "stateMutability": "nonpayable",
      "type": "function"
    },
    {
      "inputs": [
        {
          "internalType": "address",
          "name": "newImplementation",
          "type": "address"
        },
        {
          "internalType": "bytes",
          "name": "data",
          "type": "bytes"
        }
      ],
      "name": "upgradeToAndCall",
      "outputs": [],
      "stateMutability": "payable",
      "type": "function"
    },
    {
      "inputs": [],
      "name": "usdcToken",
      "outputs": [
        {
          "internalType": "contract IERC20",
          "name": "",
          "type": "address"
        }
      ],
      "stateMutability": "view",
      "type": "function"
    },
    {
      "inputs": [],
      "name": "v3Factory",
      "outputs": [
        {
          "internalType": "address",
          "name": "",
          "type": "address"
        }
      ],
      "stateMutability": "view",
      "type": "function"
    },
    {
      "inputs": [],
      "name": "vault",
      "outputs": [
        {
          "internalType": "contract IMoltXVault",
          "name": "",
          "type": "address"
        }
      ],
      "stateMutability": "view",
      "type": "function"
    },
    {
      "inputs": [
        {
          "internalType": "uint256",
          "name": "",
          "type": "uint256"
        }
      ],
      "name": "whitelistedTokens",
      "outputs": [
        {
          "internalType": "address",
          "name": "",
          "type": "address"
        }
      ],
      "stateMutability": "view",
      "type": "function"
    }
  ],
  "bytecode": "0x60a080604052346100e65760017f9b779b17422d0df92223018b32b4d1fa46e071723d6817e2486d003becc55f0055306080525f516020615aee5f395f51905f525460ff8160401c166100d7576002600160401b03196001600160401b03821601610084575b604051615a0390816100eb8239608051818181612ab90152612c230152f35b6001600160401b0319166001600160401b039081175f516020615aee5f395f51905f525581527fc7f505b2f371ae2175ee4913f4499e1f2633a7b5936321eed1cdaeb6115181d290602090a15f80610065565b63f92ee8a960e01b5f5260045ffd5b5f80fdfe60806040526004361015610011575f80fd5b5f5f3560e01c806306d74bb31461506d578063076c4a521461503057806308ae3dcd146145aa5780630a7cfd591461437557806310055c1d1461434c57806311eac8551461432557806313da4c5b146142db578063145d26de14614254578063191811751461420c5780631a686502146141e35780631b55e338146141885780631bf6912d146138365780631d3314a9146138195780631d65e77e146135085780631ee634ae146130a95780632154bc441461307e5780632372c916146130555780632587add8146130385780632b15d0f114612ff35780632c159a1a14612fca5780632fbe513414612f62578063324df36d14612ef957806336171e0e14612eb25780633d8b6e0114612e5b5780633eba94ae14612e375780633f4ba83a14612db75780634f1ef28614612baa578063509af9b214612b8057806350b7523914612b365780635116063014612b0d57806352d1902d14612aa6578063598bf04814612a2c57806359bc882b146129f95780635b7f2a83146129d55780635c975abb146129a657806361b7c72a1461297757806361dcfd821461253c578063636bf26d146121a557806365e372d61461215e5780636817031b146121175780636893bd76146120ee5780636c1af45014611fd15780636c55c03f14611f645780636f9a362214611f46578063715018a614611ec7578063742f101614611e0b57806375c79f2814611dee57806379ba509714611d9e5780637c06332214611d755780637c887c5914611d4c5780637eec20a8146119645780638456cb59146118f15780638d373141146118a65780638d9776721461176a5780638da5cb5b146117355780638e0722891461155e5780638f4e6f37146115175780638fe906d5146114fc578063a40c6abe1461100e578063a6d80a27146114a6578063ad3cb1cc1461144a578063b5af090f1461140b578063b7cd532c1461131c578063b959474d14611097578063bb0f6d7a14611013578063be3782281461100e578063c14f7ea814610e29578063d1c5c2a514610ccf578063d62aad2914610cb1578063d9379b2714610657578063db36887e14610c93578063dde61d7714610b8d578063e26f790014610aff578063e2c6d41c14610ad6578063e30c397814610aa1578063e8a422bc14610a57578063e9c78e12146108d7578063e9ee91071461074e578063ee50efa51461070c578063ef5b7a911461069c578063f216f0bd1461065c578063f2d606f214610657578063f2fde38b146105d1578063f585dc57146105b3578063fa29103c1461055f578063fbfa77cf14610536578063fdc3d8d714610518578063fdfcaabe146104cb5763ffc6d994146103ed575f80fd5b346104c85760403660031901126104c8576104066150ee565b6024359062ffffff821682036104c65761041e6157b8565b6001600160a01b0381169182156104b757828452600b60205260ff6040852054166104a8579061048191838552600b60205260408520600160ff19825416179055838552600c60205262ffffff60408620911662ffffff19825416179055615468565b7f6a65f90b1a644d2faac467a21e07e50e3f8fa5846e26231d30ae79a417d3d2628280a280f35b63b73e95e160e01b8452600484fd5b63d92e233d60e01b8452600484fd5b825b80fd5b50346104c85760403660031901126104c8576020906001600160401b03906040906001600160a01b036104fc6150ee565b168152601a845281812060243582528452205416604051908152f35b50346104c857806003193601126104c8576020600954604051908152f35b50346104c857806003193601126104c8576008546040516001600160a01b039091168152602090f35b50346104c85760403660031901126104c8576105796150ee565b6007549091906001600160a01b031633036105a457602061059c60243584615612565b604051908152f35b6376f04f9560e11b8152600490fd5b50346104c857806003193601126104c85760206040516202a3008152f35b50346104c85760203660031901126104c8576105eb6150ee565b6105f36157b8565b5f5160206159ae5f395f51905f5280546001600160a01b0319166001600160a01b039283169081179091555f51602061590e5f395f51905f52549091167f38d16b8cac22d99fc7c124b9cd0de2d3fa1faef420bfe791d8c362d765e227008380a380f35b615313565b50346104c85760203660031901126104c8576007546001600160a01b031633036105a4576004358152601560205260408120805460ff1916600117905580f35b50346104c85760403660031901126104c8576106b66150d8565b6007546001600160a01b031633036106fd5760043582526010602052604082209060018060a01b03165f52602052600360405f20016201000062ff00001982541617905580f35b6376f04f9560e11b8252600482fd5b50346104c85761071b3661512e565b6007549091906001600160a01b0316330361073f5782526019602052604082205580f35b6376f04f9560e11b8352600483fd5b50346104c85760203660031901126104c8576107686150ee565b6107706157b8565b6001600160a01b0316808252600b602052604082205460ff16156108c857808252600b6020526040822060ff198154169055808252600c6020526040822062ffffff198154169055815b600d54808210156108c157826107cf83615259565b905460039190911b1c6001600160a01b0316146107ef57506001016107ba565b5f1981019081116108ad579061082261080a61084693615259565b905460039190911b1c6001600160a01b031691615259565b81546001600160a01b0393841660039290921b91821b9390911b1916919091179055565b600d548015610899575f190161085b81615259565b81549060018060a01b039060031b1b19169055600d555b7fdd2e6d9f52cbe8f695939d018b7d4a216dc613a669876163ac548b916489d9178280a280f35b634e487b7160e01b83526031600452602483fd5b634e487b7160e01b84526011600452602484fd5b5050610872565b6307c241ad60e51b8252600482fd5b5060403660031901126104c85760043560ff8116809103610a53576108fa615791565b610902615759565b6006546001600160a01b03168015610a4457602060649160405192838092632381cacf60e21b8252866004830152602435602483015233604483015234905af1908115610a39578391610a07575b5060065460405163a32bf59760e01b815290602090829060049082906001600160a01b03165afa9081156109fc5784916109c6575b506040519182527f06bc977319d7cb33212f0488823e5fe21a5274ced972350608007dd2b373860e60203393a460015f51602061596e5f395f51905f525580f35b90506020813d6020116109f4575b816109e160209383615221565b810103126109f057515f610985565b5f80fd5b3d91506109d4565b6040513d86823e3d90fd5b90506020813d602011610a31575b81610a2260209383615221565b810103126109f057515f610950565b3d9150610a15565b6040513d85823e3d90fd5b6308a1c71960e41b8352600483fd5b5080fd5b50346104c85760403660031901126104c8576040610a736150d8565b9160043581526013602052209060018060a01b03165f52602052602060ff60405f2054166040519015158152f35b50346104c857806003193601126104c8575f5160206159ae5f395f51905f52546040516001600160a01b039091168152602090f35b50346104c857806003193601126104c8576004546040516001600160a01b039091168152602090f35b50346104c857806003193601126104c85760405180916020600d54928381520191600d82527fd7b6990105719101dabeb77144f2a3385c8033acd3af97e9423a695e81ad1eb5915b818110610b6e57610b6a85610b5e81870382615221565b604051918291826152b5565b0390f35b82546001600160a01b0316845260209093019260019283019201610b47565b50346104c85760803660031901126104c857610ba76150d8565b906044356001600160401b038111610a5357610bc7903690600401615144565b92610bd0615104565b6004549092906001600160a01b03163303610c8457600754939485946001600160a01b031690813b15610c805760405163dde61d7760e01b815260048035908201526001600160a01b03909416602485015260806044850152929385938593849286928492610c43916084850191615429565b6001600160a01b03909116606483015203925af18015610c7557610c645750f35b81610c6e91615221565b6104c85780f35b6040513d84823e3d90fd5b8580fd5b63d7b93c0f60e01b8452600484fd5b50346104c857806003193601126104c8576020600a54604051908152f35b50346104c857806003193601126104c8576020604051620151808152f35b50346104c85760403660031901126104c8576040610ceb6150d8565b91806101008351610cfb81615205565b82815282602082015282858201528260608201528260808201528260a08201528260c08201528260e0820152015260043581526010602052209060018060a01b03165f5260205261012060405f206001600160401b0360405191610d5e83615205565b80549260018060a01b0384169384825283602083019160a01c168152600183015492846040840194818116865281606086019160401c16815260036002840154936080870194855201549687968160a088019660ff8a161515885260ff61010060c08b019a828d60081c1615158c528260e082019d60101c1615158d52019b60181c1615158b526040519b8c52511660208b0152511660408901525116606087015251608086015251151560a085015251151560c084015251151560e0830152511515610100820152f35b50346104c85760203660031901126104c857600435610e46615759565b808252600f6020526040822080546001600160a01b03163303610fff5760010190815460ff8160a01c166002811015610feb57610fdc5760a81c60ff16600a811015610fc857600203610fb957808352601260205260018060a01b036040842054169181845260106020526040842060018060a01b0384165f5260205260405f209060018201916001600160401b03610ee1818554166154a3565b164211610faa579160209160037f2399d55bf2264fdf5b826cb82f1f79b96d2755fea42684b50c1e29a7aacd7b55940161010061ff0019825416179055610f556001600160401b03421680939067ffffffffffffffff60401b82549160401b169067ffffffffffffffff60401b1916179055565b805460ff60a81b1916600160aa1b1790558386526013825260408087206001600160a01b0387165f908152908452819020805460ff1916600117905551908152a360015f51602061596e5f395f51905f525580f35b631588dee160e11b8652600486fd5b63448ad72360e01b8352600483fd5b634e487b7160e01b84526021600452602484fd5b63a0042b1760e01b8452600484fd5b634e487b7160e01b85526021600452602485fd5b63b331e42160e01b8352600483fd5b6152f7565b50346104c857806003193601126104c85761102c615759565b60075481906001600160a01b0316803b1561109457818091602460405180948193630d2d67e760e41b83523360048401525af18015610c755761107f575b5060015f51602061596e5f395f51905f525580f35b8161108991615221565b6104c857805f61106a565b50fd5b50346104c8576110a636615174565b90916110b0615759565b808452600f6020526040842080546001600160a01b0316330361130d5760ff600182015460a01c1660028110156112f9576001036112ea576003810154906001600160401b038260381c16421190818015611299575b1561128a576002015460e01c63ffffffff8316149081611282575b5015611265576001600160401b0361113c9160b81c166154a3565b9291925b426001600160401b031692855b8581101561125057600581901b8201356001600160a01b038116919082900361124c57600191858952601060205260408920815f5260205260405f2087600382019182549060ff8216156112425760ff8260081c16611242576001600160401b0389164211611242576111f093610100889361ff001916179055019067ffffffffffffffff60401b82549160401b169067ffffffffffffffff60401b1916179055565b858952601360205260408920815f5260205260405f208360ff19825416179055857f2399d55bf2264fdf5b826cb82f1f79b96d2755fea42684b50c1e29a7aacd7b5560206040518a8152a35b0161114d565b505050505061123c565b8780fd5b8660015f51602061596e5f395f51905f525580f35b6001600160401b0361127a9160781c166154a3565b929192611140565b90505f611121565b6337bf561360e11b8752600487fd5b50600281015463ffffffff8160c01c169060e01c14801561110657506001600160401b0360048201541661070881018091116112d6574211611106565b634e487b7160e01b88526011600452602488fd5b63a0042b1760e01b8552600485fd5b634e487b7160e01b86526021600452602486fd5b63b331e42160e01b8552600485fd5b50346104c857806003193601126104c857611335615791565b61133d615759565b6006546001600160a01b031680156113fc5760408291602482518094819363baab18f760e01b83523360048401525af18015610c7557829183916113c1575b5060407f4b7ca2e9f457814bfc00de439bc87c00fc0fba35eeb679d2af5384d11aa8865d918151908152426020820152a260015f51602061596e5f395f51905f525580f35b9150506040813d6040116113f4575b816113dd60409383615221565b81010312610a53578051602090910151604061137c565b3d91506113d0565b6308a1c71960e41b8252600482fd5b50346104c85760203660031901126104c85760209060ff906040906001600160a01b036114366150ee565b168152600b84522054166040519015158152f35b50346104c857806003193601126104c857604080516114698282615221565b6005815260208101640352e302e360dc1b81528251938492602084525180928160208601528585015e828201840152601f01601f19168101030190f35b50346104c85760203660031901126104c8576114c06150ee565b6114c86157b8565b6001600160a01b031680156114ed576001600160601b0360a01b600454161760045580f35b63d92e233d60e01b8252600482fd5b50346104c857806003193601126104c857602061059c615580565b50346104c85760203660031901126104c8576115316150ee565b6115396157b8565b6001600160a01b031680156114ed576001600160601b0360a01b600754161760075580f35b50346104c8576101203660031901126104c8576115796150d8565b90604435801515809103610a53576064356001600160401b0381116104c6576115a6903690600401615144565b6084929192356001600160401b038111611731576115c8903690600401615144565b909260a4356001600160401b03811161172d576115e9903690600401615144565b92909760c4356001600160401b0381116117295761160b903690600401615144565b60e4356001600160a01b038116929083900361172557610104356001600160a01b0381169290839003611721576004546001600160a01b03163303611712576007549b9c8d9c6001600160a01b031698893b1561170e578d9b8c986040519e8f9d8e9c8d9b638e07228960e01b8d528c6004359060040152600160a01b600190031660248d015260448c015260648b0161012090526101248b01906116af92615429565b906003198a83030160848b01526116c592615429565b906003198883030160a48901526116db92615429565b906003198683030160c48701526116f192615429565b9160e484015261010483015203925af18015610c7557610c645750f35b8d80fd5b63d7b93c0f60e01b8c5260048cfd5b8b80fd5b8a80fd5b8880fd5b8680fd5b8480fd5b50346104c857806003193601126104c8575f51602061590e5f395f51905f52546040516001600160a01b039091168152602090f35b50346104c85760203660031901126104c8576040610240916004358152600f6020522060018060a01b038154169060018101549060028101546001600160401b036003830154816004850154169261180060ff60066005880154970154169660405198895260018060a01b03811660208a01526117f060408a0160ff8360a01c166151a7565b60ff60608a019160a81c166151c8565b6001600160601b03811660808801526001600160601b038160601c1660a088015263ffffffff8160c01c1660c088015260e01c60e087015263ffffffff811661010087015260ff8160201c1661012087015260ff8160281c1661014087015260ff8160301c161515610160870152818160381c16610180870152818160781c166101a087015260b81c166101c08501526101e08401526102008301521515610220820152f35b50346104c8576118b53661512e565b919081526011602052604081209081548310156104c85760206118d88484615285565b905460405160039290921b1c6001600160a01b03168152f35b50346104c857806003193601126104c85761190a6157b8565b611912615791565b600160ff195f51602061594e5f395f51905f525416175f51602061594e5f395f51905f52557f62e78cea01bee320cd4e420270b5ea74000d11b0c9f74754ebdbfc544b05a2586020604051338152a180f35b50346104c85760203660031901126104c857600435611981615759565b808252600f6020908152604080842083855260108352818520335f8181529190945291909120805493926001600160a01b03851603611d3d5760ff600382015416611d3d576107086001600160401b036119e3818042169760a01c1687615553565b1611611d2e576002820190856001600160601b03835460601c1680611cc3575b5050610e104201804211611caf57338752601a602052604087208588526020526001600160401b0380604089209216166001600160401b0319825416179055815460e01c8015611caf5782546001600160e01b03165f1990910160e01b6001600160e01b031916178255600183019160ff835460a01c166002811015611c9b57879493929190611c785750611aa86001600160401b03611b31925460a01c1687615553565b611b096003850191611af6611aca826001600160401b03865460381c166154c3565b84546effffffffffffffff00000000000000191660389190911b67ffffffffffffffff60381b16178455565b6001600160401b03835460781c166154c3565b815467ffffffffffffffff60781b191660789190911b67ffffffffffffffff60781b16179055565b805460ff60a81b1916905582825260126020526040822080546001600160a01b03191690555b6003546001600160a01b0316803b156104c65782809160246040518094819363cfbf6feb60e01b83523360048401525af1908115610a39578391611c63575b505060035490546001600160a01b039182169116813b156104c65782916024839260405194859384926331bfaf6160e01b845260048401525af18015610c7557611c4e575b5081905260106020526040832060018060a01b0333165f5260205282600360405f2082815582600182015582600282015501556040519182527faf41d87df835c270c97a7ca1969dfb4e7c8450cb1effa7c7f2af7013fd9bef6760203393a360015f51602061596e5f395f51905f525580f35b81611c5891615221565b6104c657825f611bdb565b81611c6d91615221565b610a5357815f611b96565b90505460e01c15611c8a575b50611b57565b805460ff60a81b191690555f611c84565b634e487b7160e01b88526021600452602488fd5b634e487b7160e01b87526011600452602487fd5b60085460018601546001600160a01b0391821692911690823b15611d2a57611d0692849283604051809681958294638bfb07c960e01b8452339060048501615397565b03925af18015610c755715611a035781611d1f91615221565b610c8057855f611a03565b8380fd5b63b92ef73560e01b8552600485fd5b635211a07960e01b8552600485fd5b50346104c857806003193601126104c857600e546040516001600160a01b039091168152602090f35b50346104c857806003193601126104c8576001546040516001600160a01b039091168152602090f35b50346104c857806003193601126104c8575f5160206159ae5f395f51905f5254336001600160a01b0390911603611ddb57611dd8336157eb565b80f35b63118cdaa760e01b815233600452602490fd5b50346104c857806003193601126104c85760206040516107088152f35b50346104c85760403660031901126104c8576040611e276150d8565b9160043581526010602052209060018060a01b03165f5260205261012060405f2060ff8154916001810154906001600160401b036003600283015492015492816040519660018060a01b038116885260a01c166020870152818116604087015260401c1660608501526080840152818116151560a0840152818160081c16151560c0840152818160101c16151560e084015260181c161515610100820152f35b50346104c857806003193601126104c857611ee06157b8565b5f5160206159ae5f395f51905f5280546001600160a01b03199081169091555f51602061590e5f395f51905f528054918216905581906001600160a01b03167f8be0079c531659141344cd1fd0a4f28419497f9722a3daafe3b4186f6b6457e08280a380f35b50346104c857806003193601126104c8576020604051629896808152f35b50346104c85760203660031901126104c8576004358152601160205260408120604051918260208354918281520192825260208220915b818110611fb257610b6a85610b5e81870382615221565b82546001600160a01b0316845260209093019260019283019201611f9b565b50346104c85760203660031901126104c857600435611fee615759565b6006546001600160a01b0316908115610a4457604051632464d11760e21b8152600481018290523360248201529160a0908390604490829087905af18015610a39578392848591869361208e575b5060405194855260208501526040840152151560608301527fec23174b45419119b3b37dfc409a242d7987563ae9a83145c2b36c1814d3096660803393a360015f51602061596e5f395f51905f525580f35b945050505060a0823d60a0116120e6575b816120ac60a09383615221565b810103126104c6578151916020810151926120c960408301615331565b506120db608060608401519301615331565b90939190915f61203c565b3d915061209f565b50346104c85760203660031901126104c857602061210d6004356154e3565b6040519015158152f35b50346104c85760203660031901126104c8576121316150ee565b6121396157b8565b6001600160a01b031680156114ed576001600160601b0360a01b600854161760085580f35b50346104c85760203660031901126104c8576121786150ee565b6121806157b8565b6001600160a01b031680156114ed576001600160601b0360a01b600654161760065580f35b50346104c8576121b43661512e565b906121bd615759565b808352600f6020908152604080852083865260108352818620335f908152935291206004549091906001600160a01b03161561252d578154336001600160a01b0390911603611d3d5760ff600383015460081c161561251e5760018060a01b03600e54169160018060a01b03865416926001830193602060018060a01b0386541691828a52600c825262ffffff60408b2054169361227f60028801946001600160601b038654166040519788958695630da3d5f760e11b875260048701615357565b038173__$72dec2cee89bd9d1ed56bfcbd5719fa3e3$__5af49182156125135788926124df575b5060ff855460a01c1660028110156124cb576001036124c4575460e01c9081156124b05704905b6298968082106124a1576001600160401b0360016202a30092015460401c1601926001600160401b038411611caf576001600160401b038416421161249257848752601460209081526040808920335f818152918452828220805460ff19166001179055888b5260178452828b209082529092529020829055805460a01c60ff166002811015611c9b5790602092911561247b575b5060048054935460405163bd57a1cf60e01b81529182018790526001600160a01b03908116602483015233604483015260648201889052608482019290925292839160a49183918a91165af1801561247057612411575b50604080519384526001600160401b03909116602084015233927f546960a33ef6439d639587237eb4e0fccba63e80982034684760497077514d4291819081015b0390a360015f51602061596e5f395f51905f525580f35b6020813d602011612468575b8161242a60209383615221565b81010312611731577f546960a33ef6439d639587237eb4e0fccba63e80982034684760497077514d42916124606123fa92615331565b5091506123b9565b3d915061241d565b6040513d87823e3d90fd5b805460ff60a81b1916600360a91b1790555f612362565b6321ad1e7f60e11b8752600487fd5b6352664d8560e01b8752600487fd5b634e487b7160e01b88526012600452602488fd5b50906122cd565b634e487b7160e01b89526021600452602489fd5b9091506020813d60201161250b575b816124fb60209383615221565b810103126109f05751905f6122a6565b3d91506124ee565b6040513d8a823e3d90fd5b63255110f760e21b8552600485fd5b6301661ffb60e41b8552600485fd5b50346104c85760203660031901126104c857600754600435906001600160a01b031633036106fd578190808352600f60205260408320600381019360ff855460301c16612969576001600160601b036002830154166101f48102908082046101f4149015171561295557612710900491821515806128c3575b61260d575b505060407f06748d41c3bbc7ce6edfac1d0ee8396c063bb3cfa1a9df96375e07137a8170d691602095660100000000000066ff0000000000001982541617905581519080825286820152a2604051908152f35b60055491959450906001600160a01b0316156128b457600854600182018054909187916001600160a01b039081169116803b156104c657604051638bfb07c960e01b81526001600160a01b039290921660048301523060248301526044820186905282908290606490829084905af18015610c755761289f575b5050805460055460405163095ea7b360e01b89526001600160a01b0391821660048190526024879052919092169160208960448180875af19060018a5114821615612890575b604052156127b8575b5050600554915490546001600160a01b03908116808852600c60209081526040808a205490516306697e0960e31b815260048101899052948416602486015260448501929092526064840186905262ffffff90911660848401529192839160a49183918a91165af19485156127ac5794612777575b5091929160407f06748d41c3bbc7ce6edfac1d0ee8396c063bb3cfa1a9df96375e07137a8170d66125ba565b93506020843d6020116127a4575b8161279260209383615221565b810103126109f057925192604061274b565b3d9150612785565b604051903d90823e3d90fd5b60405163095ea7b360e01b8952816004528860245260208960448180875af19060018a511482161561286f575b6040521561285b576040519063095ea7b360e01b89526004528460245260208860448180865af190600189511482161561283a575b6040521561282857806126d6565b635274afe760e01b8752600452602486fd5b90600181151661285257823b15153d1516169061281a565b503d88823e3d90fd5b635274afe760e01b88526004829052602488fd5b90600181151661288757833b15153d151616906127e5565b503d89823e3d90fd5b90833b15153d151616906126cd565b816128a991615221565b610c8057855f612687565b6375bcd9bd60e11b8552600485fd5b60085460018301545f51602061590e5f395f51905f52546001600160a01b03928316929081169116823b15610c8057604051638bfb07c960e01b81526001600160a01b03918216600482015291166024820152604481018690529084908290606490829084905af180156109fc57908491612940575b50506125b5565b8161294a91615221565b6104c657825f612939565b634e487b7160e01b82526011600452602482fd5b62560ff960e81b8152600490fd5b50346104c85760203660031901126104c85760ff60406020926004358152601584522054166040519015158152f35b50346104c857806003193601126104c857602060ff5f51602061594e5f395f51905f5254166040519015158152f35b50346104c857806003193601126104c857602060405168056bc75e2d631000008152f35b50346104c85760203660031901126104c857602090600435815260128252604060018060a01b0391205416604051908152f35b50346104c85760203660031901126104c857612a46615759565b60075481906001600160a01b0316803b156110945760405163261201f960e21b815260048035908201523360248201529082908290818381604481015b03925af18015610c755761107f575060015f51602061596e5f395f51905f525580f35b50346104c857806003193601126104c8577f00000000000000000000000000000000000000000000000000000000000000006001600160a01b03163003612afe5760206040515f51602061592e5f395f51905f528152f35b63703e46dd60e11b8152600490fd5b50346104c857806003193601126104c8576007546040516001600160a01b039091168152602090f35b50346104c85760403660031901126104c8576040612b526150d8565b9160043581526014602052209060018060a01b03165f52602052602060ff60405f2054166040519015158152f35b50346104c85760203660031901126104c85760406020916004358152601983522054604051908152f35b5060403660031901126104c857612bbf6150ee565b90602435916001600160401b038311610a535736602384011215610a53578260040135612beb8161529a565b93612bf96040519586615221565b8185523660248383010111611d2a5781849260246020930183880137850101526001600160a01b037f000000000000000000000000000000000000000000000000000000000000000016308114908115612d95575b50612d8657612c5b6157b8565b6040516352d1902d60e01b8152926001600160a01b0382169190602085600481865afa80958596612d52575b50612ca057634c9c8ce360e01b84526004839052602484fd5b9091845f51602061592e5f395f51905f528103612d405750823b15612d2e575f51602061592e5f395f51905f5280546001600160a01b031916821790557fbc7cd75a20ee27fd9adebab32041f755214dbc6bffa90cc0225b39da2e5c2d3b8480a2805115612d1557612d1191615881565b5080f35b505034612d1f5780f35b63b398979f60e01b8152600490fd5b634c9c8ce360e01b8452600452602483fd5b632a87526960e21b8552600452602484fd5b9095506020813d602011612d7e575b81612d6e60209383615221565b810103126117315751945f612c87565b3d9150612d61565b63703e46dd60e11b8252600482fd5b5f51602061592e5f395f51905f52546001600160a01b0316141590505f612c4e565b50346104c857806003193601126104c857612dd06157b8565b5f51602061594e5f395f51905f525460ff811615612e285760ff19165f51602061594e5f395f51905f52557f5db9ee0a495bf2e6ff9c91a7834c1ba4fdd244a5e8aa4e537bd38aeae4b073aa6020604051338152a180f35b638dfc202b60e01b8252600482fd5b50346104c857806003193601126104c85760206040516802b5e3af16b18800008152f35b50346104c85760403660031901126104c857612e756150d8565b6007546001600160a01b031633036106fd5760043582526014602052604082209060018060a01b03165f5260205260405f2060ff19815416905580f35b50346104c85760203660031901126104c857612ecc6150ee565b612ed46157b8565b6001600160a01b031680156114ed576001600160601b0360a01b600554161760055580f35b50346104c85760403660031901126104c85760243560ff8116809103610a53576007546001600160a01b031633036106fd57600a811015612f4e57611dd8906004358352600f602052600160408420016153ee565b634e487b7160e01b82526021600452602482fd5b50346104c85760603660031901126104c857612f7c6150d8565b6044359060ff82168092036104c6576007546001600160a01b0316330361073f5760043583526016602052604083209060018060a01b03165f5260205260405f209060ff1982541617905580f35b50346104c857806003193601126104c8576002546040516001600160a01b039091168152602090f35b50346104c85760403660031901126104c857604061300f6150d8565b9160043581526017602052209060018060a01b03165f52602052602060405f2054604051908152f35b50346104c857806003193601126104c85760206040516123288152f35b50346104c857806003193601126104c8576006546040516001600160a01b039091168152602090f35b50346104c85760203660031901126104c85760043590600d548210156104c85760206118d883615259565b50346104c8576101003660031901126104c8576130c46150ee565b6130cc6150d8565b6044356001600160a01b03811690819003611d2a576130e9615104565b6084356001600160a01b03811690819003610c805760a4356001600160a01b038116929083900361172d5760c435936001600160401b03851161124c573660238601121561124c5784600401359461314086615242565b9561314e6040519788615221565b8087526024602088019160051b8301019136831161172557602401905b8282106134f05750505060e435956001600160401b03871161172957366023880112156117295786600401356131a081615242565b976131ae604051998a615221565b818952602460208a019260051b8201019036821161172157602401915b8183106134d0575050505f51602061598e5f395f51905f5254976001600160401b0360ff8a60401c16159916801590816134c8575b60011490816134be575b1590816134b5575b506134a6578860016001600160401b03195f51602061598e5f395f51905f525416175f51602061598e5f395f51905f5255613476575b613250615856565b613258615856565b6001600160a01b0381161561346257613270906157eb565b613278615856565b613280615856565b6001600160a01b0316918215613453578115613453576001600160a01b0316918215613453578315613453578415613453576001600160601b0360a01b8954161788556001600160601b0360a01b60015416176001556001600160601b0360a01b60025416176002556001600160601b0360a01b60035416176003556001600160601b0360a01b600e541617600e556001600955835b81518110156133f6576001600160a01b03613331828461548f565b511680156133e757808652600b60205260ff6040872054166133d85790816001928752600b602052604087208360ff19825416179055845182105f146133d25762ffffff61337f838761548f565b51165b818852600c60205262ffffff60408920911662ffffff198254161790556133a881615468565b7f6a65f90b1a644d2faac467a21e07e50e3f8fa5846e26231d30ae79a417d3d2628780a201613316565b86613382565b63b73e95e160e01b8652600486fd5b63d92e233d60e01b8652600486fd5b5050506134005780f35b60ff60401b195f51602061598e5f395f51905f5254165f51602061598e5f395f51905f52557fc7f505b2f371ae2175ee4913f4499e1f2633a7b5936321eed1cdaeb6115181d2602060405160018152a180f35b63d92e233d60e01b8952600489fd5b631e4fbdf760e01b8a5260048a905260248afd5b600160401b60ff60401b195f51602061598e5f395f51905f525416175f51602061598e5f395f51905f5255613248565b63f92ee8a960e01b8a5260048afd5b9050155f613212565b303b15915061320a565b8a9150613200565b823562ffffff811681036134ec578152602092830192016131cb565b8c80fd5b602080916134fd8461511a565b81520191019061316b565b50346104c85760203660031901126104c8578061022060405161352a816151d5565b8281528260208201528260408201528260608201528260808201528260a08201528260c08201528260e08201528261010082015282610120820152826101408201528261016082015282610180820152826101a0820152826101c0820152826101e08201528261020082015201526004358152600f6020526040812090604051906135b4826151d5565b82546001600160a01b0390811683526001840154908116602084015260ff906135e660a082901c8316604086016153e2565b60a81c1690600a821015613805575060066102409360ff92606085015260028101546001600160601b03811660808601526001600160601b038160601c1660a086015263ffffffff8160c01c1660c086015260e01c60e08501526001600160401b03600382015463ffffffff8116610100870152848160201c16610120870152848160281c16610140870152848160301c161515610160870152818160381c16610180870152818160781c166101a087015260b81c166101c08501526001600160401b036004820154166101e0850152600581015461020085015201541615156102208201526102206040519160018060a01b03815116835260018060a01b036020820151166020840152613703604082015160408501906151a7565b613715606082015160608501906151c8565b6001600160601b0360808201511660808401526001600160601b0360a08201511660a084015263ffffffff60c08201511660c084015263ffffffff60e08201511660e084015263ffffffff6101008201511661010084015260ff6101208201511661012084015260ff6101408201511661014084015261016081015115156101608401526001600160401b03610180820151166101808401526001600160401b036101a0820151166101a08401526001600160401b036101c0820151166101c08401526001600160401b036101e0820151166101e084015261020081015161020084015201511515610220820152f35b634e487b7160e01b81526021600452602490fd5b50346104c857806003193601126104c8576020604051610e108152f35b50346104c85760203660031901126104c857600435613853615759565b808252600f60205260408220906024602060018060a01b03600254166040519283809263c3c5a54760e01b82523360048301525afa9081156109fc57849161414e575b501561413f5781546001600160a01b03163314614130576001820191825460ff8160a81c16600a8110156112f9571515806140f6575b6140e7576003820154906001600160401b038260381c1642116140d85760035460405163eabf1bfd60e01b81523360048201526001600160a01b0390911692602082602481875afa9182156125135788926140b2575b5060ff809160281c169116106140a357604051639e5457dd60e01b8152336004820152602081602481865afa908115613e14578791614061575b506001600160401b03429116116140525760405163eabf1bfd60e01b8152336004820152602081602481865afa908115613e145760249160ff918991614023575b5016801593908415613ff6575060206001915b604051635f436d4160e11b815233600482015293849182905afa918215612513578892613fc1575b5060ff161115613fb25781613eea575b50613edb57338452601a60205260408420828552602052426001600160401b0360408620541611613ecc57818452601060209081526040808620335f9081529252902080549093906001600160a01b0316613ebd5760ff815460a01c1660028110156112f957613e7a576001600283015460e01c1015613e6b57805460ff60a81b1916600160a81b17815582855260126020526040852080546001600160a01b031916331790555b60028201906001600160601b03825460601c169081613ced575b50508285526011602052604085205463ffffffff825460c01c1690600582029180830460051490151715611caf571015613cde57835467ffffffffffffffff60a01b1933166001600160e01b0319909116174260a081901b67ffffffffffffffff60a01b169190911790945580546001600160401b039490941693613b569190613b369060e01c615412565b81546001600160e01b031660e09190911b6001600160e01b031916179055565b60048101805467ffffffffffffffff19166001600160401b038516179055818452601160205260408420805490600160401b821015613cca57613ba482613bc2926001899695018155615285565b81546001600160a01b0360039290921b91821b19163390911b179055565b6003546001600160a01b0316803b156104c657828091602460405180948193630a7b54c560e31b83523360048401525af1908115610a39578391613cb5575b50506004546001600160a01b03169081613c59575b5050506040519182527fe244f7365bb69a661ead1d7d2d92939786fceda22d99e83a3ca537036ce9b59360203393a360015f51602061596e5f395f51905f525580f35b546001600160a01b0316813b156104c657829160448392604051948593849263445f767960e01b845260048401523360248401525af18015610c7557613ca0575b80613c16565b81613caa91615221565b6104c657825f613c9a565b81613cbf91615221565b610a5357815f613c01565b634e487b7160e01b86526041600452602486fd5b63fd6ed16360e01b8552600485fd5b80546008546040516370a0823160e01b81526001600160a01b039182166004820181905290948a93919290911690602086602481855afa9586156109fc578496613e34575b50823b15611d2a57613d5f92849283604051809681958294638340f54960e01b8452339060048501615397565b03925af18015610c7557613e1f575b5050546008546040516370a0823160e01b81526001600160a01b039182166004820152929160209184916024918391165afa8015613e14578790613de0575b613db792506153c1565b6001600160601b03825460601c1603613dd1575f80613aaa565b639bfa3c1760e01b8552600485fd5b506020823d602011613e0c575b81613dfa60209383615221565b810103126109f057613db79151613dad565b3d9150613ded565b6040513d89823e3d90fd5b81613e2991615221565b61172d57865f613d6e565b935094506020833d602011613e63575b81613e5160209383615221565b810103126109f057899251945f613d32565b3d9150613e44565b631fb94a6d60e31b8552600485fd5b600282015463ffffffff8160e01c9160c01c16811015613eae57613a9057805460ff60a81b1916600160a81b178155613a90565b631fb94a6d60e31b8652600486fd5b6306aa019360e21b8552600485fd5b631881601360e21b8452600484fd5b632351938f60e11b8452600484fd5b600e5486546001600160a01b03928316808952600c60209081526040808b205460028901549151630da3d5f760e11b81529750919587958695613f4895946001600160601b039094169362ffffff1692908116911660048701615357565b038173__$72dec2cee89bd9d1ed56bfcbd5719fa3e3$__5af48015612470578590613f7c575b6302faf0809150115f6139e8565b506020813d602011613faa575b81613f9660209383615221565b810103126109f0576302faf0809051613f6e565b3d9150613f89565b63c6c2075b60e01b8652600486fd5b9091506020813d602011613fee575b81613fdd60209383615221565b810103126109f057519060ff6139d8565b3d9150613fd0565b6001810361400a5750602060025b916139b0565b60041161401a5760206005614004565b60206003614004565b614045915060203d60201161404b575b61403d8183615221565b81019061533e565b5f61399d565b503d614033565b633115212b60e21b8652600486fd5b90506020813d60201161409b575b8161407c60209383615221565b8101031261172d57516001600160401b038116810361172d575f61395c565b3d915061406f565b63a7d8043560e01b8652600486fd5b60ff9192506140d0829160203d60201161404b5761403d8183615221565b929150613922565b6337bf561360e11b8652600486fd5b63fe89421760e01b8552600485fd5b5060ff8160a01c1660028110156112f95760011480614116575b156138cc565b50600282015463ffffffff8160c01c169060e01c10614110565b635211a07960e01b8352600483fd5b63aba4733960e01b8352600483fd5b90506020813d602011614180575b8161416960209383615221565b81010312611d2a5761417a90615331565b5f613896565b3d915061415c565b50346104c85760203660031901126104c8576141a2615759565b60075481906001600160a01b0316803b156110945760405163390d685560e01b81526004803590820152336024820152908290829081838160448101612a83565b50346104c857806003193601126104c8576005546040516001600160a01b039091168152602090f35b50346104c85760403660031901126104c85760406142286150d8565b9160043581526016602052209060018060a01b03165f52602052602060ff60405f205416604051908152f35b50346104c8578061426436615174565b919061426e615759565b6007546001600160a01b0316803b15611731576142b29385809460405196879586948593634289998b60e01b85526004850152606060248501526064840191615429565b33604483015203925af18015610c755761107f575060015f51602061596e5f395f51905f525580f35b50346104c85760403660031901126104c85760406142f76150d8565b9160043581526018602052209060018060a01b03165f52602052602060ff60405f2054166040519015158152f35b50346104c857806003193601126104c857546040516001600160a01b039091168152602090f35b50346104c857806003193601126104c8576003546040516001600160a01b039091168152602090f35b50346104c8576143843661512e565b9061438d615759565b808352600f6020526040832081845260106020526040842060018060a01b0333165f5260205260405f20903360018060a01b0383541603611d3d57600382019081549160ff831661459b5760038201926001600160401b03845460781c16421161458c5790600180939260ff19161790558560026001600160401b034216958481016001600160401b0388166001600160401b0319825416179055015563ffffffff61443b81855416615412565b845467ffffffffffffffff60b81b60b888901b167fff0000000000000000ffffffffffffffffffffffffffffffffffffff000000009091169190921667ffffffffffffffff60b81b191617178355019060ff825460a01c1660028110156145785761454c5750805460ff60a81b1916600160a91b1790555b60035484906001600160a01b0316803b15610a53578180916024604051809481936347011d3560e01b83523360048401525af18015610c7557614537575b5050604080519384526001600160401b03909116602084015233927f729b48a38eb73baea66f2327ea8453cd430ef7c9de664005c2a78cd7bbb85bd091819081016123fa565b8161454191615221565b611d2a57835f6144f1565b5463ffffffff16600114614561575b506144b3565b805460ff60a81b1916600160a91b1790555f61455b565b634e487b7160e01b87526021600452602487fd5b6337bf561360e11b8852600488fd5b6306aa019360e21b8752600487fd5b50346109f0576101603660031901126109f0576145c56150ee565b6024356001600160601b03811681036109f057604435926001600160601b03841684036109f05760643560028110156109f0576084359263ffffffff8416948585036109f05760a4359660ff881688036109f05760c4359260ff841684036109f05760e435946001600160401b03861686036109f05761010435966001600160401b03881688036109f05761014435988915158a036109f057614666615759565b61466e615791565b6001600160a01b0386165f818152600b6020526040902054909b9060ff16156150215760025460405163c3c5a54760e01b815233600482015290602090829060249082906001600160a01b03165afa908115614d41575f91614fe7575b5015614fd857426001600160401b038a161115614fc9576001600160401b0389166001600160401b038b161115614fc9576001600160601b03851615614fa05783614f845750506001945b600354604051639533397560e01b81523360048201526001600160a01b0390911690602081602481855afa8015614d415760ff915f91614f65575b50169081614ee8575060018060a01b03600e541660208d60018060a01b035f5416905f52600c825262ffffff60405f205416926147a4868a6040519687958695630da3d5f760e11b875260048701615357565b038173__$72dec2cee89bd9d1ed56bfcbd5719fa3e3$__5af48015614d41575f90614eb2575b6302faf080915011614ea35760035460405163256ef4cb60e01b815233600482015290602090829060249082906001600160a01b03165afa8015614d41575f90614e70575b600191501015614e61575b60ff881615159081614e56575b50614e475789614d80575b602460018060a01b036008541660208d604051938480926370a0823160e01b82528560048301525afa918215614d41575f92614d4c575b50803b156109f057855f916148979483604051809781958294638340f54960e01b8452339060048501615397565b03925af1918215614d41578c92614d2a575b50602060018060a01b03600854166024604051809581936370a0823160e01b835260048301525afa918215610a39578392614cf4575b506148f4906001600160601b038616926153c1565b03614ce5576009549a5f198c146129555760018c0160095560ff6040519161491b836151d5565b3383528c602084015261493185604085016153e2565b606083018490526001600160601b038681166080850152871660a084015263ffffffff881660c084015260e0830184905261010083018490521661012082015260ff871661014082015261016081018290526001600160401b0388811661018083015289166101a08201526101c081018290526101e08101829052610124356102008201528915156102208201528b8252600f60209081526040808420835181546001600160a01b03199081166001600160a01b03928316178355938501516001830180549095169116179092558201516002811015610fc85760018201805460ff60a01b191660a09290921b60ff60a01b169190911790556060820151600a811015610fc85781614a4b600692600161022095016153ee565b608084015160a085015160c08087015160e08089015160609490941b6bffffffffffffffffffffffff60601b166001600160601b039590951694909417911b63ffffffff60c01b1617911b6001600160e01b0319161760028201556101008401516003820180546101208701516101408801516101608901516101808a01516effffffffffffffffffffffffffffff1990941663ffffffff969096169590951760209290921b64ff00000000169190911760289190911b65ff0000000000161792151560301b66ff000000000000169290921760389290921b67ffffffffffffffff60381b16919091178155614b95906101a0860151815467ffffffffffffffff60781b191660789190911b67ffffffffffffffff60781b161781556101c0860151815467ffffffffffffffff60b81b191660b89190911b67ffffffffffffffff60b81b16179055565b6001600160401b036101e0850151166001600160401b036004830191166001600160401b0319825416179055610200840151600582015501910151151560ff8019835416911617905560018060a01b0360035416803b15610a5357818091602460405180948193633c2b1b3f60e11b83523360048401525af18015610c7557614cd0575b505060405198895260208901614c2e916151a7565b6001600160601b031660408801526001600160601b0316606087015263ffffffff16608086015260ff1660a08501526001600160401b031660c08401526001600160401b031660e08301526101243561010083015215156101208201528133916101407f8937e4bcdcd895e3950e3bf598f0686562c68ad2d803c0c0bd5d22ebbd9805b691a360015f51602061596e5f395f51905f5255604051908152602090f35b614cdb828092615221565b6104c85780614c19565b639bfa3c1760e01b8152600490fd5b9091506020813d602011614d22575b81614d1060209383615221565b810103126109f05751906148f46148df565b3d9150614d03565b5f919350614d389250615221565b895f915f6148a9565b6040513d5f823e3d90fd5b9091506020813d602011614d78575b81614d6860209383615221565b810103126109f05751905f614869565b3d9150614d5b565b6003546040516335cb33db60e01b8152336004820152905f90829060249082906001600160a01b03165afa908115614d41575f91614dce575b5051614832576328a1487f60e21b5f5260045ffd5b90503d805f833e614ddf8183615221565b8101906020818303126109f0578051906001600160401b0382116109f0570181601f820112156109f057805190614e158261529a565b92614e236040519485615221565b828452602083830101116109f057815f9260208093018386015e830101525f614db9565b63a7d8043560e01b5f5260045ffd5b60029150105f614827565b637ea6278f60e01b5f5260045ffd5b506020813d602011614e9b575b81614e8a60209383615221565b810103126109f0576001905161480f565b3d9150614e7d565b632351938f60e11b5f5260045ffd5b506020813d602011614ee0575b81614ecc60209383615221565b810103126109f0576302faf08090516147ca565b3d9150614ebf565b60018214614ef7575b5061481a565b60206024916040519283809263256ef4cb60e01b82523360048301525afa8015614d41575f90614f32575b600391501015614e61575f614ef1565b506020813d602011614f5d575b81614f4c60209383615221565b810103126109f05760039051614f22565b3d9150614f3f565b614f7e915060203d60201161404b5761403d8183615221565b5f614751565b90959060018403614fba578015908115614faf575b5015614716575b63162908e360e11b5f5260045ffd5b60649150115f614f99565b63a0042b1760e01b5f5260045ffd5b6337bf561360e11b5f5260045ffd5b63aba4733960e01b5f5260045ffd5b90506020813d602011615019575b8161500260209383615221565b810103126109f05761501390615331565b5f6146cb565b3d9150614ff5565b6307c241ad60e51b5f5260045ffd5b346109f05760203660031901126109f0576001600160a01b036150516150ee565b165f52600c602052602062ffffff60405f205416604051908152f35b346109f05760403660031901126109f0576150866150d8565b6007546001600160a01b031633036150c9576004355f9081526018602090815260408083206001600160a01b03909416835292905220805460ff19166001179055005b6376f04f9560e11b5f5260045ffd5b602435906001600160a01b03821682036109f057565b600435906001600160a01b03821682036109f057565b606435906001600160a01b03821682036109f057565b35906001600160a01b03821682036109f057565b60409060031901126109f0576004359060243590565b9181601f840112156109f0578235916001600160401b0383116109f0576020808501948460051b0101116109f057565b9060406003198301126109f05760043591602435906001600160401b0382116109f0576151a391600401615144565b9091565b9060028210156151b45752565b634e487b7160e01b5f52602160045260245ffd5b90600a8210156151b45752565b61024081019081106001600160401b038211176151f157604052565b634e487b7160e01b5f52604160045260245ffd5b61012081019081106001600160401b038211176151f157604052565b90601f801991011681019081106001600160401b038211176151f157604052565b6001600160401b0381116151f15760051b60200190565b600d5481101561527157600d5f5260205f2001905f90565b634e487b7160e01b5f52603260045260245ffd5b8054821015615271575f5260205f2001905f90565b6001600160401b0381116151f157601f01601f191660200190565b60206040818301928281528451809452019201905f5b8181106152d85750505090565b82516001600160a01b03168452602093840193909201916001016152cb565b346109f0575f3660031901126109f05760206040516101f48152f35b346109f0575f3660031901126109f05760206040516302faf0808152f35b519081151582036109f057565b908160209103126109f0575160ff811681036109f05790565b6001600160a01b039182168152918116602083015262ffffff9290921660408201526001600160601b039092166060830152909116608082015260a00190565b6001600160a01b039182168152911660208201526001600160601b03909116604082015260600190565b919082039182116153ce57565b634e487b7160e01b5f52601160045260245ffd5b60028210156151b45752565b90600a8110156151b457815460ff60a81b191660a89190911b60ff60a81b16179055565b63ffffffff1663ffffffff81146153ce5760010190565b916020908281520191905f5b8181106154425750505090565b909192602080600192838060a01b0361545a8861511a565b168152019401929101615435565b600d5490600160401b8210156151f15761082282600161548d9401600d55600d615285565b565b80518210156152715760209160051b010190565b6001600160401b0362015180911601906001600160401b0382116153ce57565b906001600160401b03809116911601906001600160401b0382116153ce57565b5f52600f60205260405f2060ff600182015460a81c16600a8110156151b4578061551d57506003015460381c6001600160401b0316421190565b60018114908115615548575b5061553357505f90565b6003015460781c6001600160401b0316421190565b60029150145f615529565b906001600160401b03809116911603906001600160401b0382116153ce57565b919082018092116153ce57565b600a546b014adf4b7320334b900000008110615604576b0219aada9b14535aca00000081106155f6576b0295be96e64066972000000081106155e8576b02e87669c308736a04000000116155db57680874ef557a00f0000090565b6810e9deaaf401e0000090565b506821e19e0c9bab24000090565b506843c33c19375648000090565b5068878678326eac90000090565b811561575357600154604051630cb2dac360e21b81526001600160a01b039091169190602081600481865afa908115614d41575f91615721575b506040516318160ddd60e01b8152602081600481875afa8015614d415785905f906156eb575b61567c9250615573565b116156e45761568d83600a54615573565b600a55813b156109f0576040516327156e0f60e01b81526001600160a01b03909116600482015260248101839052905f908290604490829084905af18015614d41576156d7575090565b5f6156e191615221565b90565b5050505f90565b50506020813d602011615719575b8161570660209383615221565b810103126109f0578461567c9151615672565b3d91506156f9565b90506020813d60201161574b575b8161573c60209383615221565b810103126109f057515f61564c565b3d915061572f565b50505f90565b60025f51602061596e5f395f51905f5254146157825760025f51602061596e5f395f51905f5255565b633ee5aeb560e01b5f5260045ffd5b60ff5f51602061594e5f395f51905f5254166157a957565b63d93c066560e01b5f5260045ffd5b5f51602061590e5f395f51905f52546001600160a01b031633036157d857565b63118cdaa760e01b5f523360045260245ffd5b5f5160206159ae5f395f51905f5280546001600160a01b03199081169091555f51602061590e5f395f51905f5280549182166001600160a01b0393841690811790915591167f8be0079c531659141344cd1fd0a4f28419497f9722a3daafe3b4186f6b6457e05f80a3565b60ff5f51602061598e5f395f51905f525460401c161561587257565b631afcd79f60e31b5f5260045ffd5b905f8091602081519101845af480806158fa575b156158b55750506040513d81523d5f602083013e60203d82010160405290565b156158da57639996b31560e01b5f9081526001600160a01b0391909116600452602490fd5b3d156158eb576040513d5f823e3d90fd5b63d6bda27560e01b5f5260045ffd5b503d1515806158955750813b151561589556fe9016d09d72d40fdae2fd8ceac6b6234c7706214fd39c1cd1e609a0528c199300360894a13ba1a3210667c828492db98dca3e2076cc3735a920a3ca505d382bbccd5ed15c6e187e77e9aee88184c21f4f2182ab5827cb3b7e07fbedcd63f033009b779b17422d0df92223018b32b4d1fa46e071723d6817e2486d003becc55f00f0c57e16840df040f15088dc2f81fe391c3923bec73e23a9662efc9c229c6a00237e158222e3e6968b72b9db0d8043aacf074ad9f650f0d1606b4d82ee432c00a2646970667358221220c717bee7a305eb08d4b0f670841d5916fcd528ef18fd42ed9a335d45581dd72564736f6c634300081c0033f0c57e16840df040f15088dc2f81fe391c3923bec73e23a9662efc9c229c6a00",
  "linkReferences": {
    "project/contracts/MoltXMath.sol": {
      "MoltXMath": [
        {
          "length": 20,
          "start": 9070
        },
        {
          "length": 20,
          "start": 16439
        },
        {
          "length": 20,
          "start": 18579
        }
      ]
    }
  },
  "deployedLinkReferences": {
    "project/contracts/MoltXMath.sol": {
      "MoltXMath": [
        {
          "length": 20,
          "start": 8835
        },
        {
          "length": 20,
          "start": 16204
        },
        {
          "length": 20,
          "start": 18344
        }
      ]
    }
  },
  "immutableReferences": {
    "1250": [
      {
        "length": 32,
        "start": 10937
      },
      {
        "length": 32,
        "start": 11299
      }
    ]
  },
  "inputSourceName": "project/contracts/MoltXCore.sol",
  "buildInfoId": "solc-0_8_28-bcadc4161113b1c2c75448eca35453fba707c04c"
}